:1000000045C0000060C000005EC000005CC0000091
:100010005AC000009DC1000072C1000047C100002D
:100020001CC1000050C000004EC000004CC00000C9
:100030004AC0000048C0000046C0000044C00000A4
:1000400042C0000040C000003EC000003CC00000B4
:100050003AC0000038C0000036C0000034C00000C4
:1000600032C0000030C000002EC000002CC00000D4
:100070002AC0000028C0000026C0000024C00000E4
:1000800022C0000020C000001EC0000011241FBEBE
:10009000CFEFD0E1DEBFCDBF11E0A0E0B1E0E0E303
:1000A000F6E000E00BBF02C007900D92A636B10744
:1000B000D9F721E0A6E6B1E001C01D92A03DB2074C
:1000C000E1F7E2D1B3C29CCF982F907F95BBAB9A5A
:1000D000EFECF7E03197F1F700C0000015BAF0E15E
:1000E0008F9FC001112485BBAB9A8FEC97E00197DD
:1000F000F1F700C0000015BA0895982F907F95BBC6
:1001000095B39C6095BBEFECF7E03197F1F700C039
:10011000000015BAF0E18F9FC001112485BB85B3A3
:100120008C6085BB8FEC97E00197F1F700C0000071
:1001300015BA0895CF93DF93EC0182E0C5DF888183
:10014000882329F02196D9DF89918111FCCFDF9195
:10015000CF91089582E0B8DF88E2B6DF8CE0B4DFAB
:1001600086E0B2DF80E8B0CF089584E091E0E2CF8E
:100170000895FBDF85E191E0DDCF0895181619069B
:100180006CF420E030E0EFECF7E03197F1F700C0DD
:1001900000002F5F3F4F82179307A9F70895CF9371
:1001A000DF9320916A0130916B012230310509F013
:1001B00051C0EC01DADF8091660190916701FC018A
:1001C000EE0FFF1FE459FE4F208131812C173D07B0
:1001D00071F5209168013091690182179307D1F47C
:1001E00086E291E0A7DF8091680190916901019614
:1001F00090936901809368011092670110926601E3
:1002000080EA9FE0BBDF81E090E090936B018093F8
:100210006A0120C083E391E08DDF809166019091B7
:1002200067010196909367018093660113C083E490
:1002300091E080DF109269011092680110926701CD
:100240001092660180EA9FE099DF93DF10926B01C4
:1002500010926A01DF91CF9108951F920F920FB60D
:100260000F9211240BB60F922F933F934F935F93EE
:100270006F937F938F939F93AF93BF93EF93FF936E
:1002800083E090E08CDFFF91EF91BF91AF919F9160
:100290008F917F916F915F914F913F912F910F902F
:1002A0000BBE0F900FBE0F901F9018951F920F92CC
:1002B0000FB60F9211240BB60F922F933F934F93CB
:1002C0005F936F937F938F939F93AF93BF93EF93BE
:1002D000FF9382E090E063DFFF91EF91BF91AF91D8
:1002E0009F918F917F916F915F914F913F912F914E
:1002F0000F900BBE0F900FBE0F901F9018951F927E
:100300000F920FB60F9211240BB60F922F933F93BB
:100310004F935F936F937F938F939F93AF93BF930D
:10032000EF93FF9381E090E03ADFFF91EF91BF916F
:10033000AF919F918F917F916F915F914F913F917D
:100340002F910F900BBE0F900FBE0F901F9018951E
:100350001F920F920FB60F9211240BB60F922F938C
:100360003F934F935F936F937F938F939F93AF933D
:10037000BF93EF93FF9380E090E011DFFF91EF9147
:10038000BF91AF919F918F917F916F915F914F91AD
:100390003F912F910F900BBE0F900FBE0F901F90AB
:1003A000189549B386B330B320B190916300842B84
:1003B000832B822B892B823048F081E090E0909350
:1003C0006B0180936A018CB59DB5C8C008958AB74A
:1003D0008FEF8ABF89B7806F89BF78940895EF92B5
:1003E000FF920F931F93CF93DF9388E491E0A2DEF7
:1003F00080916801909169019C012F5F3F4F121617
:10040000130684F50CE611E0C0E0D0E06894EE2419
:10041000E4F8F12CC817D90761F49DD08370907867
:10042000992324F401978C6F9F6F0196F8019183B3
:100430008083F80180810E5F1F4F970102C0220F59
:10044000331F8A95E2F723B980EA9FE097DE219671
:1004500080916801909169019C012F5F3F4FC21705
:10046000D307C4F282E090E090936B0180936A011D
:1004700013B87BDE89E591E05DDEDF91CF911F91BE
:100480000F91FF90EF9008951ABA17BA11BA10920F
:10049000640010926100CFEFC4BB5CDEC2B98EB5C0
:1004A00082608EBD94DF65DE80916A0190916B0160
:1004B000009719F0019719F003C073DF01C08FDFB7
:1004C00084E690E05BDEF0CF8F929F92AF92BF9276
:1004D000CF92DF92EF92FF92CF93DF93EC0168818E
:1004E00079818A819B81611571058105910521F4CE
:1004F00064E279ED8BE597E02DE133EF41E050E0E8
:1005000038D049015A019B01AC01A7EAB1E44DD0B2
:100510006B017C01ACEEB4EFA501940152D0DC017B
:10052000CB018C0D9D1DAE1DBF1DB7FF03C00197F4
:10053000A109B04888839983AA83BB839F77DF9101
:10054000CF91FF90EF90DF90CF90BF90AF909F90B2
:100550008F900895B9CF80E091E0B6CFA0E0B0E0F1
:100560008093000190930101A0930201B0930301D5
:100570000895052E97FB16F400940FD057FD05D073
:1005800024D007FC02D046F408C050954095309521
:1005900021953F4F4F4F5F4F0895909580957095EF
:1005A00061957F4F8F4F9F4F089531D0A59F900D3C
:1005B000B49F900DA49F800D911D11240895B7FF45
:1005C000F4CFF3DF821B930B0895A1E21A2EAA1B2E
:1005D000BB1BFD010DC0AA1FBB1FEE1FFF1FA217F3
:1005E000B307E407F50720F0A21BB30BE40BF50BF0
:1005F000661F771F881F991F1A9469F76095709579
:10060000809590959B01AC01BD01CF010895A29FFB
:10061000B001B39FC001A39F700D811D1124911DD6
:10062000B29F700D811D1124911D0895F894FFCF84
:100630000100000020202020202020202020202039
:1006400020202020004472756B206F702065656E3D
:10065000206B6E6F7000676F656420676564616111
:100660006E2100676F65642C20766F6C67656E6421
:10067000653F00666F7574004F6E74686F75642017
:100680006465206C6564732100446F65206865743F
:06069000206E6121000054
:00000001FF
