S00E000054696D6572322E73726563E3
S113000045C000004BC0000049C0000047C00000CC
S113001045C0000043C0000041C000003FC00000D4
S11300203DC000003CC0000039C0000037C00000E3
S113003035C0000033C0000031C000002FC00000F4
S11300402DC000002BC0000029C0000027C0000004
S113005025C0000023C0000021C000001FC0000014
S11300601DC000001BC0000019C0000017C0000024
S113007015C0000013C0000011C000000FC0000034
S11300800DC000000BC0000009C0000011241FBEF9
S1130090CFEFD0E1DEBFCDBF37D03FC0B1CF1F928D
S11300A00F920FB60F9211248F9382B3805882BBA4
S11300B082B3811104C014BC83EC83BD03C014BC9F
S11300C085E783BD8F910F900FBE0F901F901895F9
S11300D0181619066CF420E030E0EFECF7E03197E5
S11300E0F1F700C000002F5F3F4F82179307A9F775
S11300F0089585E783BD87B7806887BF8FB7806819
S11301008FBF8DE085BD08958FEF81BB80E882BBF2
S1110110F0DF8AE090E0DCDFFCCFF894FFCF54
S9030000FC
